{
  "_format": "hh-sol-artifact-1",
  "contractName": "Bondly",
  "sourceName": "contracts/Bondly.sol",
  "abi": [
    {
      "inputs": [],
      "stateMutability": "nonpayable",
      "type": "constructor"
    },
    {
      "inputs": [
        {
          "internalType": "address",
          "name": "_currency",
          "type": "address"
        }
      ],
      "name": "AlreadyAllowed",
      "type": "error"
    },
    {
      "inputs": [],
      "name": "GenericError",
      "type": "error"
    },
    {
      "inputs": [],
      "name": "InvalidBalanceAmount",
      "type": "error"
    },
    {
      "inputs": [],
      "name": "InvalidMovementZeroAmount",
      "type": "error"
    },
    {
      "inputs": [],
      "name": "InvalidSizeLimit",
      "type": "error"
    },
    {
      "inputs": [],
      "name": "InvalidZeroAddress",
      "type": "error"
    },
    {
      "inputs": [],
      "name": "InvalidZeroAmount",
      "type": "error"
    },
    {
      "inputs": [],
      "name": "NotEnoughBalance",
      "type": "error"
    },
    {
      "inputs": [
        {
          "internalType": "uint256",
          "name": "_fee",
          "type": "uint256"
        }
      ],
      "name": "NotEnoughToPayFee",
      "type": "error"
    },
    {
      "inputs": [],
      "name": "NotSuccessfulOperation",
      "type": "error"
    },
    {
      "inputs": [
        {
          "internalType": "bytes32",
          "name": "_hash_id",
          "type": "bytes32"
        }
      ],
      "name": "ProjectNotFound",
      "type": "error"
    },
    {
      "inputs": [],
      "name": "Unauthorized",
      "type": "error"
    },
    {
      "inputs": [
        {
          "internalType": "address",
          "name": "_currency",
          "type": "address"
        }
      ],
      "name": "UnavailableCurrency",
      "type": "error"
    },
    {
      "inputs": [],
      "name": "UnavailableStaking",
      "type": "error"
    },
    {
      "inputs": [
        {
          "internalType": "string",
          "name": "_movementSlug",
          "type": "string"
        },
        {
          "internalType": "string",
          "name": "_projectSlug",
          "type": "string"
        }
      ],
      "name": "approveMovement",
      "outputs": [],
      "stateMutability": "nonpayable",
      "type": "function"
    },
    {
      "inputs": [
        {
          "internalType": "enum Bondly.MovementType",
          "name": "_movementType",
          "type": "uint8"
        },
        {
          "internalType": "string",
          "name": "_name",
          "type": "string"
        },
        {
          "internalType": "string",
          "name": "_description",
          "type": "string"
        },
        {
          "internalType": "string",
          "name": "_movementSlug",
          "type": "string"
        },
        {
          "internalType": "string",
          "name": "_projectSlug",
          "type": "string"
        },
        {
          "internalType": "uint256",
          "name": "_amountStable",
          "type": "uint256"
        },
        {
          "internalType": "uint256",
          "name": "_amountEth",
          "type": "uint256"
        },
        {
          "internalType": "uint256",
          "name": "_amountStakedEth",
          "type": "uint256"
        },
        {
          "internalType": "address",
          "name": "_payTo",
          "type": "address"
        }
      ],
      "name": "createMovement",
      "outputs": [],
      "stateMutability": "payable",
      "type": "function"
    },
    {
      "inputs": [
        {
          "internalType": "string",
          "name": "_name",
          "type": "string"
        },
        {
          "internalType": "string",
          "name": "_description",
          "type": "string"
        },
        {
          "internalType": "string",
          "name": "_organization",
          "type": "string"
        },
        {
          "internalType": "string",
          "name": "_slug",
          "type": "string"
        },
        {
          "internalType": "address[]",
          "name": "_owners",
          "type": "address[]"
        },
        {
          "internalType": "uint32",
          "name": "_approvalThreshold",
          "type": "uint32"
        },
        {
          "internalType": "address",
          "name": "_currency",
          "type": "address"
        }
      ],
      "name": "createProject",
      "outputs": [],
      "stateMutability": "payable",
      "type": "function"
    },
    {
      "inputs": [
        {
          "internalType": "string",
          "name": "_projectSlug",
          "type": "string"
        },
        {
          "internalType": "uint256",
          "name": "_amountStable",
          "type": "uint256"
        },
        {
          "internalType": "uint256",
          "name": "_amountStakedEth",
          "type": "uint256"
        }
      ],
      "name": "fundProject",
      "outputs": [],
      "stateMutability": "payable",
      "type": "function"
    },
    {
      "inputs": [
        {
          "internalType": "bytes32",
          "name": "_hash_id",
          "type": "bytes32"
        },
        {
          "internalType": "uint256",
          "name": "_amountStable",
          "type": "uint256"
        },
        {
          "internalType": "uint256",
          "name": "_amountStakedEth",
          "type": "uint256"
        }
      ],
      "name": "fundProjectHash",
      "outputs": [],
      "stateMutability": "payable",
      "type": "function"
    },
    {
      "inputs": [
        {
          "internalType": "uint256",
          "name": "_index",
          "type": "uint256"
        }
      ],
      "name": "getAllProjectHashId",
      "outputs": [
        {
          "internalType": "bytes32",
          "name": "",
          "type": "bytes32"
        }
      ],
      "stateMutability": "view",
      "type": "function"
    },
    {
      "inputs": [
        {
          "internalType": "string",
          "name": "_slug",
          "type": "string"
        }
      ],
      "name": "getProject",
      "outputs": [
        {
          "components": [
            {
              "internalType": "bytes32",
              "name": "id",
              "type": "bytes32"
            },
            {
              "internalType": "address[]",
              "name": "owners",
              "type": "address[]"
            },
            {
              "internalType": "uint32",
              "name": "approvalThreshold",
              "type": "uint32"
            },
            {
              "internalType": "address",
              "name": "stableAddress",
              "type": "address"
            },
            {
              "internalType": "uint256",
              "name": "balanceEth",
              "type": "uint256"
            },
            {
              "internalType": "uint256",
              "name": "balanceStakedEth",
              "type": "uint256"
            },
            {
              "internalType": "uint256",
              "name": "balanceStable",
              "type": "uint256"
            },
            {
              "internalType": "uint256",
              "name": "convertedStakedBalance",
              "type": "uint256"
            }
          ],
          "internalType": "struct IBondly.ProjectJson",
          "name": "",
          "type": "tuple"
        }
      ],
      "stateMutability": "view",
      "type": "function"
    },
    {
      "inputs": [
        {
          "internalType": "string",
          "name": "_slug",
          "type": "string"
        }
      ],
      "name": "getProjectBalance",
      "outputs": [
        {
          "internalType": "uint256",
          "name": "_stable",
          "type": "uint256"
        },
        {
          "internalType": "uint256",
          "name": "_eth",
          "type": "uint256"
        },
        {
          "internalType": "uint256",
          "name": "_stakedEth",
          "type": "uint256"
        }
      ],
      "stateMutability": "view",
      "type": "function"
    },
    {
      "inputs": [
        {
          "internalType": "string",
          "name": "_slug",
          "type": "string"
        }
      ],
      "name": "getProjectBalanceEth",
      "outputs": [
        {
          "internalType": "uint256",
          "name": "",
          "type": "uint256"
        }
      ],
      "stateMutability": "view",
      "type": "function"
    },
    {
      "inputs": [
        {
          "internalType": "string",
          "name": "_slug",
          "type": "string"
        }
      ],
      "name": "getProjectBalanceStable",
      "outputs": [
        {
          "internalType": "uint256",
          "name": "",
          "type": "uint256"
        }
      ],
      "stateMutability": "view",
      "type": "function"
    },
    {
      "inputs": [
        {
          "internalType": "string",
          "name": "_slug",
          "type": "string"
        }
      ],
      "name": "getProjectBalanceStakedEth",
      "outputs": [
        {
          "internalType": "uint256",
          "name": "",
          "type": "uint256"
        }
      ],
      "stateMutability": "view",
      "type": "function"
    },
    {
      "inputs": [
        {
          "internalType": "string",
          "name": "_slug",
          "type": "string"
        }
      ],
      "name": "getProjectDetails",
      "outputs": [
        {
          "internalType": "string",
          "name": "",
          "type": "string"
        },
        {
          "internalType": "string",
          "name": "",
          "type": "string"
        },
        {
          "internalType": "string",
          "name": "",
          "type": "string"
        }
      ],
      "stateMutability": "view",
      "type": "function"
    },
    {
      "inputs": [
        {
          "internalType": "bytes32",
          "name": "_hash_id",
          "type": "bytes32"
        }
      ],
      "name": "getProjectDetailsHash",
      "outputs": [
        {
          "internalType": "string",
          "name": "",
          "type": "string"
        },
        {
          "internalType": "string",
          "name": "",
          "type": "string"
        },
        {
          "internalType": "string",
          "name": "",
          "type": "string"
        }
      ],
      "stateMutability": "view",
      "type": "function"
    },
    {
      "inputs": [
        {
          "internalType": "bytes32",
          "name": "hash_id",
          "type": "bytes32"
        }
      ],
      "name": "getProjectHash",
      "outputs": [
        {
          "components": [
            {
              "internalType": "bytes32",
              "name": "id",
              "type": "bytes32"
            },
            {
              "internalType": "address[]",
              "name": "owners",
              "type": "address[]"
            },
            {
              "internalType": "uint32",
              "name": "approvalThreshold",
              "type": "uint32"
            },
            {
              "internalType": "address",
              "name": "stableAddress",
              "type": "address"
            },
            {
              "internalType": "uint256",
              "name": "balanceEth",
              "type": "uint256"
            },
            {
              "internalType": "uint256",
              "name": "balanceStakedEth",
              "type": "uint256"
            },
            {
              "internalType": "uint256",
              "name": "balanceStable",
              "type": "uint256"
            },
            {
              "internalType": "uint256",
              "name": "convertedStakedBalance",
              "type": "uint256"
            }
          ],
          "internalType": "struct IBondly.ProjectJson",
          "name": "",
          "type": "tuple"
        }
      ],
      "stateMutability": "view",
      "type": "function"
    },
    {
      "inputs": [
        {
          "internalType": "string",
          "name": "_slug",
          "type": "string"
        }
      ],
      "name": "getProjectThreshold",
      "outputs": [
        {
          "internalType": "uint256",
          "name": "_totalOwners",
          "type": "uint256"
        },
        {
          "internalType": "uint256",
          "name": "_threshold",
          "type": "uint256"
        },
        {
          "internalType": "address",
          "name": "_stableAddress",
          "type": "address"
        }
      ],
      "stateMutability": "view",
      "type": "function"
    },
    {
      "inputs": [],
      "name": "getTotalMovements",
      "outputs": [
        {
          "internalType": "uint256",
          "name": "",
          "type": "uint256"
        }
      ],
      "stateMutability": "view",
      "type": "function"
    },
    {
      "inputs": [],
      "name": "getTotalProjects",
      "outputs": [
        {
          "internalType": "uint256",
          "name": "",
          "type": "uint256"
        }
      ],
      "stateMutability": "view",
      "type": "function"
    },
    {
      "inputs": [],
      "name": "liquidStaking",
      "outputs": [
        {
          "internalType": "address",
          "name": "",
          "type": "address"
        }
      ],
      "stateMutability": "view",
      "type": "function"
    },
    {
      "inputs": [
        {
          "internalType": "address",
          "name": "",
          "type": "address"
        },
        {
          "internalType": "uint256",
          "name": "",
          "type": "uint256"
        }
      ],
      "name": "movementCreator",
      "outputs": [
        {
          "internalType": "bytes32",
          "name": "",
          "type": "bytes32"
        }
      ],
      "stateMutability": "view",
      "type": "function"
    },
    {
      "inputs": [
        {
          "internalType": "bytes32",
          "name": "",
          "type": "bytes32"
        }
      ],
      "name": "movements",
      "outputs": [
        {
          "internalType": "bytes32",
          "name": "id",
          "type": "bytes32"
        },
        {
          "internalType": "enum Bondly.MovementType",
          "name": "movementType",
          "type": "uint8"
        },
        {
          "internalType": "string",
          "name": "name",
          "type": "string"
        },
        {
          "internalType": "string",
          "name": "description",
          "type": "string"
        },
        {
          "internalType": "bytes32",
          "name": "projectId",
          "type": "bytes32"
        },
        {
          "internalType": "uint256",
          "name": "amountEth",
          "type": "uint256"
        },
        {
          "internalType": "uint256",
          "name": "amountStakedEth",
          "type": "uint256"
        },
        {
          "internalType": "uint256",
          "name": "amountStable",
          "type": "uint256"
        },
        {
          "internalType": "address",
          "name": "payTo",
          "type": "address"
        },
        {
          "internalType": "address",
          "name": "proposedBy",
          "type": "address"
        },
        {
          "internalType": "bool",
          "name": "executed",
          "type": "bool"
        },
        {
          "internalType": "bool",
          "name": "rejected",
          "type": "bool"
        }
      ],
      "stateMutability": "view",
      "type": "function"
    },
    {
      "inputs": [
        {
          "internalType": "bytes32",
          "name": "",
          "type": "bytes32"
        },
        {
          "internalType": "uint256",
          "name": "",
          "type": "uint256"
        }
      ],
      "name": "projectMovement",
      "outputs": [
        {
          "internalType": "bytes32",
          "name": "",
          "type": "bytes32"
        }
      ],
      "stateMutability": "view",
      "type": "function"
    },
    {
      "inputs": [
        {
          "internalType": "address",
          "name": "",
          "type": "address"
        },
        {
          "internalType": "uint256",
          "name": "",
          "type": "uint256"
        }
      ],
      "name": "projectOwners",
      "outputs": [
        {
          "internalType": "bytes32",
          "name": "",
          "type": "bytes32"
        }
      ],
      "stateMutability": "view",
      "type": "function"
    },
    {
      "inputs": [
        {
          "internalType": "bytes32",
          "name": "",
          "type": "bytes32"
        }
      ],
      "name": "projects",
      "outputs": [
        {
          "internalType": "bytes32",
          "name": "id",
          "type": "bytes32"
        },
        {
          "internalType": "string",
          "name": "name",
          "type": "string"
        },
        {
          "internalType": "string",
          "name": "description",
          "type": "string"
        },
        {
          "internalType": "string",
          "name": "organization",
          "type": "string"
        },
        {
          "internalType": "uint256",
          "name": "balanceEth",
          "type": "uint256"
        },
        {
          "internalType": "uint256",
          "name": "balanceStakedEth",
          "type": "uint256"
        },
        {
          "internalType": "uint256",
          "name": "balanceStable",
          "type": "uint256"
        },
        {
          "internalType": "contract IERC20",
          "name": "stableAddress",
          "type": "address"
        },
        {
          "internalType": "uint32",
          "name": "approvalThreshold",
          "type": "uint32"
        }
      ],
      "stateMutability": "view",
      "type": "function"
    },
    {
      "inputs": [
        {
          "internalType": "string",
          "name": "_movementSlug",
          "type": "string"
        },
        {
          "internalType": "string",
          "name": "_projectSlug",
          "type": "string"
        }
      ],
      "name": "rejectMovement",
      "outputs": [],
      "stateMutability": "nonpayable",
      "type": "function"
    },
    {
      "inputs": [
        {
          "internalType": "string",
          "name": "_projectSlug",
          "type": "string"
        },
        {
          "internalType": "address",
          "name": "_newCurrency",
          "type": "address"
        }
      ],
      "name": "updateProjectStableAddress",
      "outputs": [],
      "stateMutability": "nonpayable",
      "type": "function"
    }
  ],
  "bytecode": "0x608060405234801561001057600080fd5b50615f8c80620000216000396000f3fe6080604052600436106101665760003560e01c8063812739a2116100d1578063b94d66401161008a578063cbcc32ac11610064578063cbcc32ac146105b3578063cbde7169146105f0578063cfc1ef771461061b578063fa14f93a1461064657610166565b8063b94d664014610515578063b96ea12d14610552578063c32104941461059757610166565b8063812739a2146103cf5780638a479e98146103fa5780638b7fa29714610437578063951465dc1461047f57806399fad73c1461049b578063a1bcf49a146104d857610166565b80632ceb7ba2116101235780632ceb7ba2146102715780633162a709146102ae5780634fa691e2146102ed57806360fd73911461032a578063772db39c146103695780637e941f8c146103a657610166565b80630b93e8f51461016b5780630d6292be146101945780631f35c2d7146101bd5780631fa21fef146101fa578063248c45bc14610216578063256068f814610232575b600080fd5b34801561017757600080fd5b50610192600480360381019061018d91906148b4565b610685565b005b3480156101a057600080fd5b506101bb60048036038101906101b69190614910565b6107a3565b005b3480156101c957600080fd5b506101e460048036038101906101df91906149be565b610b37565b6040516101f19190614ba0565b60405180910390f35b610214600480360381019061020f9190614cb6565b610ffd565b005b610230600480360381019061022b9190614e10565b6113b4565b005b34801561023e57600080fd5b5061025960048036038101906102549190614e63565b611569565b60405161026893929190614eca565b60405180910390f35b34801561027d57600080fd5b5061029860048036038101906102939190614e63565b6115a1565b6040516102a59190614f01565b60405180910390f35b3480156102ba57600080fd5b506102d560048036038101906102d09190614e63565b6115b7565b6040516102e493929190614f9b565b60405180910390f35b3480156102f957600080fd5b50610314600480360381019061030f9190614e63565b611612565b6040516103219190614ba0565b60405180910390f35b34801561033657600080fd5b50610351600480360381019061034c9190614e63565b611656565b60405161036093929190614fe7565b60405180910390f35b34801561037557600080fd5b50610390600480360381019061038b919061501e565b611683565b60405161039d919061506d565b60405180910390f35b3480156103b257600080fd5b506103cd60048036038101906103c89190614910565b6116b4565b005b3480156103db57600080fd5b506103e4611a48565b6040516103f19190614f01565b60405180910390f35b34801561040657600080fd5b50610421600480360381019061041c9190614e63565b611a59565b60405161042e9190614f01565b60405180910390f35b34801561044357600080fd5b5061045e600480360381019061045991906149be565b611a6f565b6040516104769c9b9a9998979695949392919061511a565b60405180910390f35b61049960048036038101906104949190615207565b611c46565b005b3480156104a757600080fd5b506104c260048036038101906104bd9190615341565b6123f3565b6040516104cf919061506d565b60405180910390f35b3480156104e457600080fd5b506104ff60048036038101906104fa9190615341565b612424565b60405161050c919061506d565b60405180910390f35b34801561052157600080fd5b5061053c60048036038101906105379190615381565b612455565b604051610549919061506d565b60405180910390f35b34801561055e57600080fd5b50610579600480360381019061057491906149be565b612472565b60405161058e9998979695949392919061541c565b60405180910390f35b6105b160048036038101906105ac91906154be565b612688565b005b3480156105bf57600080fd5b506105da60048036038101906105d59190614e63565b6126c4565b6040516105e79190614f01565b60405180910390f35b3480156105fc57600080fd5b506106056126da565b6040516106129190614f01565b60405180910390f35b34801561062757600080fd5b506106306126eb565b60405161063d919061552d565b60405180910390f35b34801561065257600080fd5b5061066d600480360381019061066891906149be565b61270f565b60405161067c93929190614f9b565b60405180910390f35b81600061069182611612565b90506106a133826020015161273e565b6106d7576040517f82b4290000000000000000000000000000000000000000000000000000000000815260040160405180910390fd5b6000846040516020016106ea9190615584565b6040516020818303038152906040528051906020012090506000600260008381526020019081526020016000209050600081600701541115610758576040517f08cd884000000000000000000000000000000000000000000000000000000000815260040160405180910390fd5b848160080160006101000a81548173ffffffffffffffffffffffffffffffffffffffff021916908373ffffffffffffffffffffffffffffffffffffffff160217905550505050505050565b8060006107af82611612565b90506107bf33826020015161273e565b6107f5576040517f82b4290000000000000000000000000000000000000000000000000000000000815260040160405180910390fd5b6000846040516020016108089190615584565b6040516020818303038152906040528051906020012090506108348160086127c590919063ffffffff16565b610873576040517f08c379a000000000000000000000000000000000000000000000000000000000815260040161086a906155e7565b60405180910390fd5b60006007600083815260200190815260200160002090508060090160009054906101000a900473ffffffffffffffffffffffffffffffffffffffff1673ffffffffffffffffffffffffffffffffffffffff163373ffffffffffffffffffffffffffffffffffffffff160361091c576040517f08c379a000000000000000000000000000000000000000000000000000000000815260040161091390615679565b60405180910390fd5b6109ae3382600a018054806020026020016040519081016040528092919081815260200182805480156109a457602002820191906000526020600020905b8160009054906101000a900473ffffffffffffffffffffffffffffffffffffffff1673ffffffffffffffffffffffffffffffffffffffff168152602001906001019080831161095a575b505050505061273e565b156109ee576040517f08c379a00000000000000000000000000000000000000000000000000000000081526004016109e5906156e5565b60405180910390fd5b610a803382600b01805480602002602001604051908101604052809291908181526020018280548015610a7657602002820191906000526020600020905b8160009054906101000a900473ffffffffffffffffffffffffffffffffffffffff1673ffffffffffffffffffffffffffffffffffffffff1681526020019060010190808311610a2c575b505050505061273e565b15610ac0576040517f08c379a0000000000000000000000000000000000000000000000000000000008152600401610ab790615751565b60405180910390fd5b80600b01339080600181540180825580915050600190039060005260206000200160009091909190916101000a81548173ffffffffffffffffffffffffffffffffffffffff021916908373ffffffffffffffffffffffffffffffffffffffff160217905550610b2f82866127dc565b505050505050565b610b3f6144c8565b610b538260036127c590919063ffffffff16565b15610fbb576000600260008481526020019081526020016000206040518061014001604052908160008201548152602001600182018054610b93906157a0565b80601f0160208091040260200160405190810160405280929190818152602001828054610bbf906157a0565b8015610c0c5780601f10610be157610100808354040283529160200191610c0c565b820191906000526020600020905b815481529060010190602001808311610bef57829003601f168201915b50505050508152602001600282018054610c25906157a0565b80601f0160208091040260200160405190810160405280929190818152602001828054610c51906157a0565b8015610c9e5780601f10610c7357610100808354040283529160200191610c9e565b820191906000526020600020905b815481529060010190602001808311610c8157829003601f168201915b50505050508152602001600382018054610cb7906157a0565b80601f0160208091040260200160405190810160405280929190818152602001828054610ce3906157a0565b8015610d305780601f10610d0557610100808354040283529160200191610d30565b820191906000526020600020905b815481529060010190602001808311610d1357829003601f168201915b5050505050815260200160048201805480602002602001604051908101604052809291908181526020018280548015610dbe57602002820191906000526020600020905b8160009054906101000a900473ffffffffffffffffffffffffffffffffffffffff1673ffffffffffffffffffffffffffffffffffffffff1681526020019060010190808311610d74575b505050505081526020016005820154815260200160068201548152602001600782015481526020016008820160009054906101000a900473ffffffffffffffffffffffffffffffffffffffff1673ffffffffffffffffffffffffffffffffffffffff1673ffffffffffffffffffffffffffffffffffffffff1681526020016008820160149054906101000a900463ffffffff1663ffffffff1663ffffffff16815250509050610e6b6144c8565b816000015181600001818152505081608001518160200181905250816101200151816040019063ffffffff16908163ffffffff1681525050816101000151816060019073ffffffffffffffffffffffffffffffffffffffff16908173ffffffffffffffffffffffffffffffffffffffff16815250508160a001518160800181815250508160c001518160a00181815250508160e001518160c001818152505060008054906101000a900473ffffffffffffffffffffffffffffffffffffffff1673ffffffffffffffffffffffffffffffffffffffff166307a2d13a8360c001516040518263ffffffff1660e01b8152600401610f679190614f01565b602060405180830381865afa158015610f84573d6000803e3d6000fd5b505050506040513d601f19601f82011682018060405250810190610fa891906157e6565b8160e00181815250508092505050610ff8565b816040517ffef081b7000000000000000000000000000000000000000000000000000000008152600401610fef919061506d565b60405180910390fd5b919050565b600073ffffffffffffffffffffffffffffffffffffffff168173ffffffffffffffffffffffffffffffffffffffff1603611063576040517ff6b2911f00000000000000000000000000000000000000000000000000000000815260040160405180910390fd5b82518263ffffffff1611156110a4576040517f1c2c63dc00000000000000000000000000000000000000000000000000000000815260040160405180910390fd5b60008263ffffffff16036110e4576040517fdd484e7000000000000000000000000000000000000000000000000000000000815260040160405180910390fd5b6000846040516020016110f79190615584565b6040516020818303038152906040528051906020012090506111238160036127c590919063ffffffff16565b1561115a576040517f1c2c63dc00000000000000000000000000000000000000000000000000000000815260040160405180910390fd5b61116261452c565b818160000181815250508381610120019063ffffffff16908163ffffffff16815250508281610100019073ffffffffffffffffffffffffffffffffffffffff16908173ffffffffffffffffffffffffffffffffffffffff1681525050848160800181905250888160200181905250878160400181905250868160600181905250806002600084815260200190815260200160002060008201518160000155602082015181600101908161121591906159b5565b50604082015181600201908161122b91906159b5565b50606082015181600301908161124191906159b5565b50608082015181600401908051906020019061125e92919061459e565b5060a0820151816005015560c0820151816006015560e082015181600701556101008201518160080160006101000a81548173ffffffffffffffffffffffffffffffffffffffff021916908373ffffffffffffffffffffffffffffffffffffffff1602179055506101208201518160080160146101000a81548163ffffffff021916908363ffffffff1602179055509050506113048260036138f090919063ffffffff16565b5060005b85518110156113a85760006001600088848151811061132a57611329615a87565b5b602002602001015173ffffffffffffffffffffffffffffffffffffffff1673ffffffffffffffffffffffffffffffffffffffff16815260200190815260200160002090508084908060018154018082558091505060019003906000526020600020016000909190919091505550806113a190615ae5565b9050611308565b50505050505050505050565b6113c88360036127c590919063ffffffff16565b6113d157600080fd5b6000349050600060026000868152602001908152602001600020905060008383866113fc9190615b2d565b6114069190615b2d565b0361143d576040517f56e80b5c00000000000000000000000000000000000000000000000000000000815260040160405180910390fd5b838160070160008282546114519190615b2d565b925050819055508281600601600082825461146c9190615b2d565b92505081905550818160050160008282546114879190615b2d565b925050819055506000808511156114ee576114e93330878560080160009054906101000a900473ffffffffffffffffffffffffffffffffffffffff1673ffffffffffffffffffffffffffffffffffffffff16613907909392919063ffffffff16565b600190505b60008411156115495761154433308660008054906101000a900473ffffffffffffffffffffffffffffffffffffffff1673ffffffffffffffffffffffffffffffffffffffff16613907909392919063ffffffff16565b600190505b600083111561155757600190505b8061156157600080fd5b505050505050565b60008060008061157885611612565b9050806020015151816040015182606001518163ffffffff169150935093509350509193909250565b60006115ac82611612565b608001519050919050565b60608060606000846040516020016115cf9190615584565b60405160208183030381529060405280519060200120905060006115f282613990565b905080602001518160400151826060015194509450945050509193909250565b61161a6144c8565b60008260405160200161162d9190615584565b60405160208183030381529060405280519060200120905061164e81610b37565b915050919050565b600080600061166484611a59565b925061166f846115a1565b915061167a846115a1565b90509193909250565b6006602052816000526040600020818154811061169f57600080fd5b90600052602060002001600091509150505481565b8060006116c082611612565b90506116d033826020015161273e565b611706576040517f82b4290000000000000000000000000000000000000000000000000000000000815260040160405180910390fd5b6000846040516020016117199190615584565b6040516020818303038152906040528051906020012090506117458160086127c590919063ffffffff16565b611784576040517f08c379a000000000000000000000000000000000000000000000000000000000815260040161177b906155e7565b60405180910390fd5b60006007600083815260200190815260200160002090508060090160009054906101000a900473ffffffffffffffffffffffffffffffffffffffff1673ffffffffffffffffffffffffffffffffffffffff163373ffffffffffffffffffffffffffffffffffffffff160361182d576040517f08c379a000000000000000000000000000000000000000000000000000000000815260040161182490615bd3565b60405180910390fd5b6118bf3382600a018054806020026020016040519081016040528092919081815260200182805480156118b557602002820191906000526020600020905b8160009054906101000a900473ffffffffffffffffffffffffffffffffffffffff1673ffffffffffffffffffffffffffffffffffffffff168152602001906001019080831161186b575b505050505061273e565b156118ff576040517f08c379a00000000000000000000000000000000000000000000000000000000081526004016118f6906156e5565b60405180910390fd5b6119913382600b0180548060200260200160405190810160405280929190818152602001828054801561198757602002820191906000526020600020905b8160009054906101000a900473ffffffffffffffffffffffffffffffffffffffff1673ffffffffffffffffffffffffffffffffffffffff168152602001906001019080831161193d575b505050505061273e565b156119d1576040517f08c379a00000000000000000000000000000000000000000000000000000000081526004016119c890615751565b60405180910390fd5b80600a01339080600181540180825580915050600190039060005260206000200160009091909190916101000a81548173ffffffffffffffffffffffffffffffffffffffff021916908373ffffffffffffffffffffffffffffffffffffffff160217905550611a4082866127dc565b505050505050565b6000611a546003613d07565b905090565b6000611a6482611612565b60c001519050919050565b60076020528060005260406000206000915090508060000154908060010160009054906101000a900460ff1690806002018054611aab906157a0565b80601f0160208091040260200160405190810160405280929190818152602001828054611ad7906157a0565b8015611b245780601f10611af957610100808354040283529160200191611b24565b820191906000526020600020905b815481529060010190602001808311611b0757829003601f168201915b505050505090806003018054611b39906157a0565b80601f0160208091040260200160405190810160405280929190818152602001828054611b65906157a0565b8015611bb25780601f10611b8757610100808354040283529160200191611bb2565b820191906000526020600020905b815481529060010190602001808311611b9557829003601f168201915b5050505050908060040154908060050154908060060154908060070154908060080160009054906101000a900473ffffffffffffffffffffffffffffffffffffffff16908060090160009054906101000a900473ffffffffffffffffffffffffffffffffffffffff169080600c0160009054906101000a900460ff169080600c0160019054906101000a900460ff1690508c565b846000611c5282611612565b9050611c6233826020015161273e565b611c98576040517f82b4290000000000000000000000000000000000000000000000000000000000815260040160405180910390fd5b60006003811115611cac57611cab615088565b5b8b6003811115611cbf57611cbe615088565b5b03611d7f57600073ffffffffffffffffffffffffffffffffffffffff168373ffffffffffffffffffffffffffffffffffffffff1603611d2a576040517ff6b2911f00000000000000000000000000000000000000000000000000000000815260040160405180910390fd5b6000848688611d399190615b2d565b611d439190615b2d565b03611d7a576040517f56e80b5c00000000000000000000000000000000000000000000000000000000815260040160405180910390fd5b611e27565b6000861115611dba576040517f1d40d55d00000000000000000000000000000000000000000000000000000000815260040160405180910390fd5b60016003811115611dce57611dcd615088565b5b8b6003811115611de157611de0615088565b5b03611e0857600085118015611df65750600084145b611e0357611e02615bf3565b5b611e26565b600085148015611e185750600084115b611e2557611e24615bf3565b5b5b5b600088604051602001611e3a9190615584565b604051602081830303815290604052805190602001209050611e668160086127c590919063ffffffff16565b15611e9d576040517f1c2c63dc00000000000000000000000000000000000000000000000000000000815260040160405180910390fd5b600088604051602001611eb09190615584565b60405160208183030381529060405280519060200120905060006002600083815260200190815260200160002090508881600701541015611f1d576040517fad3a8b9e00000000000000000000000000000000000000000000000000000000815260040160405180910390fd5b8781600501541015611f5b576040517fad3a8b9e00000000000000000000000000000000000000000000000000000000815260040160405180910390fd5b8681600601541015611f99576040517fad3a8b9e00000000000000000000000000000000000000000000000000000000815260040160405180910390fd5b88816007016000828254611fad9190615c22565b9250508190555087816005016000828254611fc89190615c22565b9250508190555086816006016000828254611fe39190615c22565b92505081905550611ff2614628565b8381600001818152505082816080018181525050898160e0018181525050888160a0018181525050878160c00181815250508681610100019073ffffffffffffffffffffffffffffffffffffffff16908173ffffffffffffffffffffffffffffffffffffffff16815250503381610120019073ffffffffffffffffffffffffffffffffffffffff16908173ffffffffffffffffffffffffffffffffffffffff16815250508d81604001819052508c816060018190525080600760008681526020019081526020016000206000820151816000015560208201518160010160006101000a81548160ff021916908360038111156120f1576120f0615088565b5b0217905550604082015181600201908161210b91906159b5565b50606082015181600301908161212191906159b5565b506080820151816004015560a0820151816005015560c0820151816006015560e082015181600701556101008201518160080160006101000a81548173ffffffffffffffffffffffffffffffffffffffff021916908373ffffffffffffffffffffffffffffffffffffffff1602179055506101208201518160090160006101000a81548173ffffffffffffffffffffffffffffffffffffffff021916908373ffffffffffffffffffffffffffffffffffffffff16021790555061014082015181600a0190805190602001906121f792919061459e565b5061016082015181600b01908051906020019061221592919061459e565b5061018082015181600c0160006101000a81548160ff0219169083151502179055506101a082015181600c0160016101000a81548160ff02191690831515021790555090505061226f8460086138f090919063ffffffff16565b506000826004018054806020026020016040519081016040528092919081815260200182805480156122f657602002820191906000526020600020905b8160009054906101000a900473ffffffffffffffffffffffffffffffffffffffff1673ffffffffffffffffffffffffffffffffffffffff16815260200190600101908083116122ac575b5050505050905060005b81518110156123a05760006005600084848151811061232257612321615a87565b5b602002602001015173ffffffffffffffffffffffffffffffffffffffff1673ffffffffffffffffffffffffffffffffffffffff168152602001908152602001600020905080879080600181540180825580915050600190039060005260206000200160009091909190915055508061239990615ae5565b9050612300565b506000600660008681526020019081526020016000209050808690806001815401808255809150506001900390600052602060002001600090919091909150555050505050505050505050505050505050565b6001602052816000526040600020818154811061240f57600080fd5b90600052602060002001600091509150505481565b6005602052816000526040600020818154811061244057600080fd5b90600052602060002001600091509150505481565b600061246b826003613d1c90919063ffffffff16565b9050919050565b600260205280600052604060002060009150905080600001549080600101805461249b906157a0565b80601f01602080910402602001604051908101604052809291908181526020018280546124c7906157a0565b80156125145780601f106124e957610100808354040283529160200191612514565b820191906000526020600020905b8154815290600101906020018083116124f757829003601f168201915b505050505090806002018054612529906157a0565b80601f0160208091040260200160405190810160405280929190818152602001828054612555906157a0565b80156125a25780601f10612577576101008083540402835291602001916125a2565b820191906000526020600020905b81548152906001019060200180831161258557829003601f168201915b5050505050908060030180546125b7906157a0565b80601f01602080910402602001604051908101604052809291908181526020018280546125e3906157a0565b80156126305780601f1061260557610100808354040283529160200191612630565b820191906000526020600020905b81548152906001019060200180831161261357829003601f168201915b5050505050908060050154908060060154908060070154908060080160009054906101000a900473ffffffffffffffffffffffffffffffffffffffff16908060080160149054906101000a900463ffffffff16905089565b60008360405160200161269b9190615584565b6040516020818303038152906040528051906020012090506126be8184846113b4565b50505050565b60006126cf82611612565b60a001519050919050565b60006126e66008613d07565b905090565b60008054906101000a900473ffffffffffffffffffffffffffffffffffffffff1681565b6060806060600061271f85613990565b9050806020015181604001518260600151935093509350509193909250565b6000806000905060005b83518110156127ba5783818151811061276457612763615a87565b5b602002602001015173ffffffffffffffffffffffffffffffffffffffff168573ffffffffffffffffffffffffffffffffffffffff16036127a757600191506127ba565b80806127b290615ae5565b915050612748565b508091505092915050565b60006127d48360000183613d33565b905092915050565b6000600760008481526020019081526020016000209050600080600061280185611569565b92509250925083600c0160009054906101000a900460ff16158015612835575083600c0160019054906101000a900460ff16155b156138e8576001826128479190615c22565b84600a01805490501061380d57600184600c0160006101000a81548160ff0219169083151502179055506000600381111561288557612884615088565b5b8460010160009054906101000a900460ff1660038111156128a9576128a8615088565b5b03612c5857612c5384604051806101c0016040529081600082015481526020016001820160009054906101000a900460ff1660038111156128ed576128ec615088565b5b60038111156128ff576128fe615088565b5b8152602001600282018054612913906157a0565b80601f016020809104026020016040519081016040528092919081815260200182805461293f906157a0565b801561298c5780601f106129615761010080835404028352916020019161298c565b820191906000526020600020905b81548152906001019060200180831161296f57829003601f168201915b505050505081526020016003820180546129a5906157a0565b80601f01602080910402602001604051908101604052809291908181526020018280546129d1906157a0565b8015612a1e5780601f106129f357610100808354040283529160200191612a1e565b820191906000526020600020905b815481529060010190602001808311612a0157829003601f168201915b50505050508152602001600482015481526020016005820154815260200160068201548152602001600782015481526020016008820160009054906101000a900473ffffffffffffffffffffffffffffffffffffffff1673ffffffffffffffffffffffffffffffffffffffff1673ffffffffffffffffffffffffffffffffffffffff1681526020016009820160009054906101000a900473ffffffffffffffffffffffffffffffffffffffff1673ffffffffffffffffffffffffffffffffffffffff1673ffffffffffffffffffffffffffffffffffffffff168152602001600a8201805480602002602001604051908101604052809291908181526020018280548015612b8057602002820191906000526020600020905b8160009054906101000a900473ffffffffffffffffffffffffffffffffffffffff1673ffffffffffffffffffffffffffffffffffffffff1681526020019060010190808311612b36575b50505050508152602001600b8201805480602002602001604051908101604052809291908181526020018280548015612c0e57602002820191906000526020600020905b8160009054906101000a900473ffffffffffffffffffffffffffffffffffffffff1673ffffffffffffffffffffffffffffffffffffffff1681526020019060010190808311612bc4575b50505050508152602001600c820160009054906101000a900460ff16151515158152602001600c820160019054906101000a900460ff16151515158152505082613d56565b613808565b60016003811115612c6c57612c6b615088565b5b8460010160009054906101000a900460ff166003811115612c9057612c8f615088565b5b0361303e5761303984604051806101c0016040529081600082015481526020016001820160009054906101000a900460ff166003811115612cd457612cd3615088565b5b6003811115612ce657612ce5615088565b5b8152602001600282018054612cfa906157a0565b80601f0160208091040260200160405190810160405280929190818152602001828054612d26906157a0565b8015612d735780601f10612d4857610100808354040283529160200191612d73565b820191906000526020600020905b815481529060010190602001808311612d5657829003601f168201915b50505050508152602001600382018054612d8c906157a0565b80601f0160208091040260200160405190810160405280929190818152602001828054612db8906157a0565b8015612e055780601f10612dda57610100808354040283529160200191612e05565b820191906000526020600020905b815481529060010190602001808311612de857829003601f168201915b50505050508152602001600482015481526020016005820154815260200160068201548152602001600782015481526020016008820160009054906101000a900473ffffffffffffffffffffffffffffffffffffffff1673ffffffffffffffffffffffffffffffffffffffff1673ffffffffffffffffffffffffffffffffffffffff1681526020016009820160009054906101000a900473ffffffffffffffffffffffffffffffffffffffff1673ffffffffffffffffffffffffffffffffffffffff1673ffffffffffffffffffffffffffffffffffffffff168152602001600a8201805480602002602001604051908101604052809291908181526020018280548015612f6757602002820191906000526020600020905b8160009054906101000a900473ffffffffffffffffffffffffffffffffffffffff1673ffffffffffffffffffffffffffffffffffffffff1681526020019060010190808311612f1d575b50505050508152602001600b8201805480602002602001604051908101604052809291908181526020018280548015612ff557602002820191906000526020600020905b8160009054906101000a900473ffffffffffffffffffffffffffffffffffffffff1673ffffffffffffffffffffffffffffffffffffffff1681526020019060010190808311612fab575b50505050508152602001600c820160009054906101000a900460ff16151515158152602001600c820160019054906101000a900460ff161515151581525050613e62565b613807565b60038081111561305157613050615088565b5b8460010160009054906101000a900460ff16600381111561307557613074615088565b5b036134235761341e84604051806101c0016040529081600082015481526020016001820160009054906101000a900460ff1660038111156130b9576130b8615088565b5b60038111156130cb576130ca615088565b5b81526020016002820180546130df906157a0565b80601f016020809104026020016040519081016040528092919081815260200182805461310b906157a0565b80156131585780601f1061312d57610100808354040283529160200191613158565b820191906000526020600020905b81548152906001019060200180831161313b57829003601f168201915b50505050508152602001600382018054613171906157a0565b80601f016020809104026020016040519081016040528092919081815260200182805461319d906157a0565b80156131ea5780601f106131bf576101008083540402835291602001916131ea565b820191906000526020600020905b8154815290600101906020018083116131cd57829003601f168201915b50505050508152602001600482015481526020016005820154815260200160068201548152602001600782015481526020016008820160009054906101000a900473ffffffffffffffffffffffffffffffffffffffff1673ffffffffffffffffffffffffffffffffffffffff1673ffffffffffffffffffffffffffffffffffffffff1681526020016009820160009054906101000a900473ffffffffffffffffffffffffffffffffffffffff1673ffffffffffffffffffffffffffffffffffffffff1673ffffffffffffffffffffffffffffffffffffffff168152602001600a820180548060200260200160405190810160405280929190818152602001828054801561334c57602002820191906000526020600020905b8160009054906101000a900473ffffffffffffffffffffffffffffffffffffffff1673ffffffffffffffffffffffffffffffffffffffff1681526020019060010190808311613302575b50505050508152602001600b82018054806020026020016040519081016040528092919081815260200182805480156133da57602002820191906000526020600020905b8160009054906101000a900473ffffffffffffffffffffffffffffffffffffffff1673ffffffffffffffffffffffffffffffffffffffff1681526020019060010190808311613390575b50505050508152602001600c820160009054906101000a900460ff16151515158152602001600c820160019054906101000a900460ff161515151581525050613fb2565b613806565b6002600381111561343757613436615088565b5b8460010160009054906101000a900460ff16600381111561345b5761345a615088565b5b036138055761380484604051806101c0016040529081600082015481526020016001820160009054906101000a900460ff16600381111561349f5761349e615088565b5b60038111156134b1576134b0615088565b5b81526020016002820180546134c5906157a0565b80601f01602080910402602001604051908101604052809291908181526020018280546134f1906157a0565b801561353e5780601f106135135761010080835404028352916020019161353e565b820191906000526020600020905b81548152906001019060200180831161352157829003601f168201915b50505050508152602001600382018054613557906157a0565b80601f0160208091040260200160405190810160405280929190818152602001828054613583906157a0565b80156135d05780601f106135a5576101008083540402835291602001916135d0565b820191906000526020600020905b8154815290600101906020018083116135b357829003601f168201915b50505050508152602001600482015481526020016005820154815260200160068201548152602001600782015481526020016008820160009054906101000a900473ffffffffffffffffffffffffffffffffffffffff1673ffffffffffffffffffffffffffffffffffffffff1673ffffffffffffffffffffffffffffffffffffffff1681526020016009820160009054906101000a900473ffffffffffffffffffffffffffffffffffffffff1673ffffffffffffffffffffffffffffffffffffffff1673ffffffffffffffffffffffffffffffffffffffff168152602001600a820180548060200260200160405190810160405280929190818152602001828054801561373257602002820191906000526020600020905b8160009054906101000a900473ffffffffffffffffffffffffffffffffffffffff1673ffffffffffffffffffffffffffffffffffffffff16815260200190600101908083116136e8575b50505050508152602001600b82018054806020026020016040519081016040528092919081815260200182805480156137c057602002820191906000526020600020905b8160009054906101000a900473ffffffffffffffffffffffffffffffffffffffff1673ffffffffffffffffffffffffffffffffffffffff1681526020019060010190808311613776575b50505050508152602001600c820160009054906101000a900460ff16151515158152602001600c820160019054906101000a900460ff16151515158152505061405a565b5b5b5b5b6138e7565b81836138199190615c22565b84600b018054905011156138e657600184600c0160016101000a81548160ff0219169083151502179055506000856040516020016138579190615584565b6040516020818303038152906040528051906020012090506000600260008381526020019081526020016000209050856007015481600701600082825461389e9190615b2d565b9250508190555085600501548160050160008282546138bd9190615b2d565b9250508190555085600601548160060160008282546138dc9190615b2d565b9250508190555050505b5b5b505050505050565b60006138ff8360000183614102565b905092915050565b61398a846323b872dd60e01b85858560405160240161392893929190615c56565b604051602081830303815290604052907bffffffffffffffffffffffffffffffffffffffffffffffffffffffff19166020820180517bffffffffffffffffffffffffffffffffffffffffffffffffffffffff8381831617835250505050614172565b50505050565b61399861452c565b6139ac8260036127c590919063ffffffff16565b15613cc55760006002600084815260200190815260200160002060405180610140016040529081600082015481526020016001820180546139ec906157a0565b80601f0160208091040260200160405190810160405280929190818152602001828054613a18906157a0565b8015613a655780601f10613a3a57610100808354040283529160200191613a65565b820191906000526020600020905b815481529060010190602001808311613a4857829003601f168201915b50505050508152602001600282018054613a7e906157a0565b80601f0160208091040260200160405190810160405280929190818152602001828054613aaa906157a0565b8015613af75780601f10613acc57610100808354040283529160200191613af7565b820191906000526020600020905b815481529060010190602001808311613ada57829003601f168201915b50505050508152602001600382018054613b10906157a0565b80601f0160208091040260200160405190810160405280929190818152602001828054613b3c906157a0565b8015613b895780601f10613b5e57610100808354040283529160200191613b89565b820191906000526020600020905b815481529060010190602001808311613b6c57829003601f168201915b5050505050815260200160048201805480602002602001604051908101604052809291908181526020018280548015613c1757602002820191906000526020600020905b8160009054906101000a900473ffffffffffffffffffffffffffffffffffffffff1673ffffffffffffffffffffffffffffffffffffffff1681526020019060010190808311613bcd575b505050505081526020016005820154815260200160068201548152602001600782015481526020016008820160009054906101000a900473ffffffffffffffffffffffffffffffffffffffff1673ffffffffffffffffffffffffffffffffffffffff1673ffffffffffffffffffffffffffffffffffffffff1681526020016008820160149054906101000a900463ffffffff1663ffffffff1663ffffffff1681525050905080915050613d02565b816040517ffef081b7000000000000000000000000000000000000000000000000000000008152600401613cf9919061506d565b60405180910390fd5b919050565b6000613d1582600001614239565b9050919050565b6000613d2b836000018361424a565b905092915050565b600080836001016000848152602001908152602001600020541415905092915050565b60008260e0015190506000811115613d9957613d98836101000151828473ffffffffffffffffffffffffffffffffffffffff166142759092919063ffffffff16565b5b60008360c0015190506000811115613dfc57613dfb8461010001518260008054906101000a900473ffffffffffffffffffffffffffffffffffffffff1673ffffffffffffffffffffffffffffffffffffffff166142759092919063ffffffff16565b5b60008460a0015190506000811115613e5b5784610100015173ffffffffffffffffffffffffffffffffffffffff166108fc829081150290604051600060405180830381858888f19350505050158015613e59573d6000803e3d6000fd5b505b5050505050565b60008060009054906101000a900473ffffffffffffffffffffffffffffffffffffffff1673ffffffffffffffffffffffffffffffffffffffff168260a001516040516024016040516020818303038152906040527f439370b1000000000000000000000000000000000000000000000000000000007bffffffffffffffffffffffffffffffffffffffffffffffffffffffff19166020820180517bffffffffffffffffffffffffffffffffffffffffffffffffffffffff8381831617835250505050604051613f319190615cd4565b60006040518083038185875af1925050503d8060008114613f6e576040519150601f19603f3d011682016040523d82523d6000602084013e613f73565b606091505b5050905080613fae576040517fc4531a0800000000000000000000000000000000000000000000000000000000815260040160405180910390fd5b5050565b60008054906101000a900473ffffffffffffffffffffffffffffffffffffffff1673ffffffffffffffffffffffffffffffffffffffff1663ba0876528260c0015130306040518463ffffffff1660e01b815260040161401393929190615ceb565b6020604051808303816000875af1158015614032573d6000803e3d6000fd5b505050506040513d601f19601f8201168201806040525081019061405691906157e6565b5050565b60008054906101000a900473ffffffffffffffffffffffffffffffffffffffff1673ffffffffffffffffffffffffffffffffffffffff1663ba0876528260c0015130306040518463ffffffff1660e01b81526004016140bb93929190615ceb565b6020604051808303816000875af11580156140da573d6000803e3d6000fd5b505050506040513d601f19601f820116820180604052508101906140fe91906157e6565b5050565b600061410e8383613d33565b61416757826000018290806001815401808255809150506001900390600052602060002001600090919091909150558260000180549050836001016000848152602001908152602001600020819055506001905061416c565b600090505b92915050565b60006141d4826040518060400160405280602081526020017f5361666545524332303a206c6f772d6c6576656c2063616c6c206661696c65648152508573ffffffffffffffffffffffffffffffffffffffff166142fb9092919063ffffffff16565b905060008151111561423457808060200190518101906141f49190615d4e565b614233576040517f08c379a000000000000000000000000000000000000000000000000000000000815260040161422a90615ded565b60405180910390fd5b5b505050565b600081600001805490509050919050565b600082600001828154811061426257614261615a87565b5b9060005260206000200154905092915050565b6142f68363a9059cbb60e01b8484604051602401614294929190615e0d565b604051602081830303815290604052907bffffffffffffffffffffffffffffffffffffffffffffffffffffffff19166020820180517bffffffffffffffffffffffffffffffffffffffffffffffffffffffff8381831617835250505050614172565b505050565b606061430a8484600085614313565b90509392505050565b606082471015614358576040517f08c379a000000000000000000000000000000000000000000000000000000000815260040161434f90615ea8565b60405180910390fd5b6000808673ffffffffffffffffffffffffffffffffffffffff1685876040516143819190615cd4565b60006040518083038185875af1925050503d80600081146143be576040519150601f19603f3d011682016040523d82523d6000602084013e6143c3565b606091505b50915091506143d4878383876143e0565b92505050949350505050565b6060831561444257600083510361443a576143fa85614455565b614439576040517f08c379a000000000000000000000000000000000000000000000000000000000815260040161443090615f14565b60405180910390fd5b5b82905061444d565b61444c8383614478565b5b949350505050565b6000808273ffffffffffffffffffffffffffffffffffffffff163b119050919050565b60008251111561448b5781518083602001fd5b806040517f08c379a00000000000000000000000000000000000000000000000000000000081526004016144bf9190615f34565b60405180910390fd5b6040518061010001604052806000801916815260200160608152602001600063ffffffff168152602001600073ffffffffffffffffffffffffffffffffffffffff168152602001600081526020016000815260200160008152602001600081525090565b6040518061014001604052806000801916815260200160608152602001606081526020016060815260200160608152602001600081526020016000815260200160008152602001600073ffffffffffffffffffffffffffffffffffffffff168152602001600063ffffffff1681525090565b828054828255906000526020600020908101928215614617579160200282015b828111156146165782518260006101000a81548173ffffffffffffffffffffffffffffffffffffffff021916908373ffffffffffffffffffffffffffffffffffffffff160217905550916020019190600101906145be565b5b50905061462491906146df565b5090565b604051806101c00160405280600080191681526020016000600381111561465257614651615088565b5b8152602001606081526020016060815260200160008019168152602001600081526020016000815260200160008152602001600073ffffffffffffffffffffffffffffffffffffffff168152602001600073ffffffffffffffffffffffffffffffffffffffff16815260200160608152602001606081526020016000151581526020016000151581525090565b5b808211156146f85760008160009055506001016146e0565b5090565b6000604051905090565b600080fd5b600080fd5b600080fd5b600080fd5b6000601f19601f8301169050919050565b7f4e487b7100000000000000000000000000000000000000000000000000000000600052604160045260246000fd5b6147638261471a565b810181811067ffffffffffffffff821117156147825761478161472b565b5b80604052505050565b60006147956146fc565b90506147a1828261475a565b919050565b600067ffffffffffffffff8211156147c1576147c061472b565b5b6147ca8261471a565b9050602081019050919050565b82818337600083830152505050565b60006147f96147f4846147a6565b61478b565b90508281526020810184848401111561481557614814614715565b5b6148208482856147d7565b509392505050565b600082601f83011261483d5761483c614710565b5b813561484d8482602086016147e6565b91505092915050565b600073ffffffffffffffffffffffffffffffffffffffff82169050919050565b600061488182614856565b9050919050565b61489181614876565b811461489c57600080fd5b50565b6000813590506148ae81614888565b92915050565b600080604083850312156148cb576148ca614706565b5b600083013567ffffffffffffffff8111156148e9576148e861470b565b5b6148f585828601614828565b92505060206149068582860161489f565b9150509250929050565b6000806040838503121561492757614926614706565b5b600083013567ffffffffffffffff8111156149455761494461470b565b5b61495185828601614828565b925050602083013567ffffffffffffffff8111156149725761497161470b565b5b61497e85828601614828565b9150509250929050565b6000819050919050565b61499b81614988565b81146149a657600080fd5b50565b6000813590506149b881614992565b92915050565b6000602082840312156149d4576149d3614706565b5b60006149e2848285016149a9565b91505092915050565b6149f481614988565b82525050565b600081519050919050565b600082825260208201905092915050565b6000819050602082019050919050565b614a2f81614876565b82525050565b6000614a418383614a26565b60208301905092915050565b6000602082019050919050565b6000614a65826149fa565b614a6f8185614a05565b9350614a7a83614a16565b8060005b83811015614aab578151614a928882614a35565b9750614a9d83614a4d565b925050600181019050614a7e565b5085935050505092915050565b600063ffffffff82169050919050565b614ad181614ab8565b82525050565b6000819050919050565b614aea81614ad7565b82525050565b600061010083016000830151614b0960008601826149eb565b5060208301518482036020860152614b218282614a5a565b9150506040830151614b366040860182614ac8565b506060830151614b496060860182614a26565b506080830151614b5c6080860182614ae1565b5060a0830151614b6f60a0860182614ae1565b5060c0830151614b8260c0860182614ae1565b5060e0830151614b9560e0860182614ae1565b508091505092915050565b60006020820190508181036000830152614bba8184614af0565b905092915050565b600067ffffffffffffffff821115614bdd57614bdc61472b565b5b602082029050602081019050919050565b600080fd5b6000614c06614c0184614bc2565b61478b565b90508083825260208201905060208402830185811115614c2957614c28614bee565b5b835b81811015614c525780614c3e888261489f565b845260208401935050602081019050614c2b565b5050509392505050565b600082601f830112614c7157614c70614710565b5b8135614c81848260208601614bf3565b91505092915050565b614c9381614ab8565b8114614c9e57600080fd5b50565b600081359050614cb081614c8a565b92915050565b600080600080600080600060e0888a031215614cd557614cd4614706565b5b600088013567ffffffffffffffff811115614cf357614cf261470b565b5b614cff8a828b01614828565b975050602088013567ffffffffffffffff811115614d2057614d1f61470b565b5b614d2c8a828b01614828565b965050604088013567ffffffffffffffff811115614d4d57614d4c61470b565b5b614d598a828b01614828565b955050606088013567ffffffffffffffff811115614d7a57614d7961470b565b5b614d868a828b01614828565b945050608088013567ffffffffffffffff811115614da757614da661470b565b5b614db38a828b01614c5c565b93505060a0614dc48a828b01614ca1565b92505060c0614dd58a828b0161489f565b91505092959891949750929550565b614ded81614ad7565b8114614df857600080fd5b50565b600081359050614e0a81614de4565b92915050565b600080600060608486031215614e2957614e28614706565b5b6000614e37868287016149a9565b9350506020614e4886828701614dfb565b9250506040614e5986828701614dfb565b9150509250925092565b600060208284031215614e7957614e78614706565b5b600082013567ffffffffffffffff811115614e9757614e9661470b565b5b614ea384828501614828565b91505092915050565b614eb581614ad7565b82525050565b614ec481614876565b82525050565b6000606082019050614edf6000830186614eac565b614eec6020830185614eac565b614ef96040830184614ebb565b949350505050565b6000602082019050614f166000830184614eac565b92915050565b600081519050919050565b600082825260208201905092915050565b60005b83811015614f56578082015181840152602081019050614f3b565b60008484015250505050565b6000614f6d82614f1c565b614f778185614f27565b9350614f87818560208601614f38565b614f908161471a565b840191505092915050565b60006060820190508181036000830152614fb58186614f62565b90508181036020830152614fc98185614f62565b90508181036040830152614fdd8184614f62565b9050949350505050565b6000606082019050614ffc6000830186614eac565b6150096020830185614eac565b6150166040830184614eac565b949350505050565b6000806040838503121561503557615034614706565b5b6000615043858286016149a9565b925050602061505485828601614dfb565b9150509250929050565b61506781614988565b82525050565b6000602082019050615082600083018461505e565b92915050565b7f4e487b7100000000000000000000000000000000000000000000000000000000600052602160045260246000fd5b600481106150c8576150c7615088565b5b50565b60008190506150d9826150b7565b919050565b60006150e9826150cb565b9050919050565b6150f9816150de565b82525050565b60008115159050919050565b615114816150ff565b82525050565b600061018082019050615130600083018f61505e565b61513d602083018e6150f0565b818103604083015261514f818d614f62565b90508181036060830152615163818c614f62565b9050615172608083018b61505e565b61517f60a083018a614eac565b61518c60c0830189614eac565b61519960e0830188614eac565b6151a7610100830187614ebb565b6151b5610120830186614ebb565b6151c361014083018561510b565b6151d161016083018461510b565b9d9c50505050505050505050505050565b600481106151ef57600080fd5b50565b600081359050615201816151e2565b92915050565b60008060008060008060008060006101208a8c03121561522a57615229614706565b5b60006152388c828d016151f2565b99505060208a013567ffffffffffffffff8111156152595761525861470b565b5b6152658c828d01614828565b98505060408a013567ffffffffffffffff8111156152865761528561470b565b5b6152928c828d01614828565b97505060608a013567ffffffffffffffff8111156152b3576152b261470b565b5b6152bf8c828d01614828565b96505060808a013567ffffffffffffffff8111156152e0576152df61470b565b5b6152ec8c828d01614828565b95505060a06152fd8c828d01614dfb565b94505060c061530e8c828d01614dfb565b93505060e061531f8c828d01614dfb565b9250506101006153318c828d0161489f565b9150509295985092959850929598565b6000806040838503121561535857615357614706565b5b60006153668582860161489f565b925050602061537785828601614dfb565b9150509250929050565b60006020828403121561539757615396614706565b5b60006153a584828501614dfb565b91505092915050565b6000819050919050565b60006153d36153ce6153c984614856565b6153ae565b614856565b9050919050565b60006153e5826153b8565b9050919050565b60006153f7826153da565b9050919050565b615407816153ec565b82525050565b61541681614ab8565b82525050565b600061012082019050615432600083018c61505e565b8181036020830152615444818b614f62565b90508181036040830152615458818a614f62565b9050818103606083015261546c8189614f62565b905061547b6080830188614eac565b61548860a0830187614eac565b61549560c0830186614eac565b6154a260e08301856153fe565b6154b061010083018461540d565b9a9950505050505050505050565b6000806000606084860312156154d7576154d6614706565b5b600084013567ffffffffffffffff8111156154f5576154f461470b565b5b61550186828701614828565b935050602061551286828701614dfb565b925050604061552386828701614dfb565b9150509250925092565b60006020820190506155426000830184614ebb565b92915050565b600081905092915050565b600061555e82614f1c565b6155688185615548565b9350615578818560208601614f38565b80840191505092915050565b60006155908284615553565b915081905092915050565b7f4d4f56454d454e545f49445f444f45535f4e4f545f4558495354000000000000600082015250565b60006155d1601a83614f27565b91506155dc8261559b565b602082019050919050565b60006020820190508181036000830152615600816155c4565b9050919050565b7f43414e4e4f545f42455f50524f504f5345445f414e445f52454a45435445445f60008201527f42595f53414d455f555345520000000000000000000000000000000000000000602082015250565b6000615663602c83614f27565b915061566e82615607565b604082019050919050565b6000602082019050818103600083015261569281615656565b9050919050565b7f555345525f414c52454144595f415050524f5645445f4d4f56454d454e540000600082015250565b60006156cf601e83614f27565b91506156da82615699565b602082019050919050565b600060208201905081810360008301526156fe816156c2565b9050919050565b7f555345525f414c52454144595f52454a45435445445f4d4f56454d454e540000600082015250565b600061573b601e83614f27565b915061574682615705565b602082019050919050565b6000602082019050818103600083015261576a8161572e565b9050919050565b7f4e487b7100000000000000000000000000000000000000000000000000000000600052602260045260246000fd5b600060028204905060018216806157b857607f821691505b6020821081036157cb576157ca615771565b5b50919050565b6000815190506157e081614de4565b92915050565b6000602082840312156157fc576157fb614706565b5b600061580a848285016157d1565b91505092915050565b60008190508160005260206000209050919050565b60006020601f8301049050919050565b600082821b905092915050565b6000600883026158757fffffffffffffffffffffffffffffffffffffffffffffffffffffffffffffffff82615838565b61587f8683615838565b95508019841693508086168417925050509392505050565b60006158b26158ad6158a884614ad7565b6153ae565b614ad7565b9050919050565b6000819050919050565b6158cc83615897565b6158e06158d8826158b9565b848454615845565b825550505050565b600090565b6158f56158e8565b6159008184846158c3565b505050565b5b81811015615924576159196000826158ed565b600181019050615906565b5050565b601f8211156159695761593a81615813565b61594384615828565b81016020851015615952578190505b61596661595e85615828565b830182615905565b50505b505050565b600082821c905092915050565b600061598c6000198460080261596e565b1980831691505092915050565b60006159a5838361597b565b9150826002028217905092915050565b6159be82614f1c565b67ffffffffffffffff8111156159d7576159d661472b565b5b6159e182546157a0565b6159ec828285615928565b600060209050601f831160018114615a1f5760008415615a0d578287015190505b615a178582615999565b865550615a7f565b601f198416615a2d86615813565b60005b82811015615a5557848901518255600182019150602085019450602081019050615a30565b86831015615a725784890151615a6e601f89168261597b565b8355505b6001600288020188555050505b505050505050565b7f4e487b7100000000000000000000000000000000000000000000000000000000600052603260045260246000fd5b7f4e487b7100000000000000000000000000000000000000000000000000000000600052601160045260246000fd5b6000615af082614ad7565b91507fffffffffffffffffffffffffffffffffffffffffffffffffffffffffffffffff8203615b2257615b21615ab6565b5b600182019050919050565b6000615b3882614ad7565b9150615b4383614ad7565b9250828201905080821115615b5b57615b5a615ab6565b5b92915050565b7f43414e4e4f545f42455f50524f504f5345445f414e445f415050524f5645445f60008201527f42595f53414d455f555345520000000000000000000000000000000000000000602082015250565b6000615bbd602c83614f27565b9150615bc882615b61565b604082019050919050565b60006020820190508181036000830152615bec81615bb0565b9050919050565b7f4e487b7100000000000000000000000000000000000000000000000000000000600052600160045260246000fd5b6000615c2d82614ad7565b9150615c3883614ad7565b9250828203905081811115615c5057615c4f615ab6565b5b92915050565b6000606082019050615c6b6000830186614ebb565b615c786020830185614ebb565b615c856040830184614eac565b949350505050565b600081519050919050565b600081905092915050565b6000615cae82615c8d565b615cb88185615c98565b9350615cc8818560208601614f38565b80840191505092915050565b6000615ce08284615ca3565b915081905092915050565b6000606082019050615d006000830186614eac565b615d0d6020830185614ebb565b615d1a6040830184614ebb565b949350505050565b615d2b816150ff565b8114615d3657600080fd5b50565b600081519050615d4881615d22565b92915050565b600060208284031215615d6457615d63614706565b5b6000615d7284828501615d39565b91505092915050565b7f5361666545524332303a204552433230206f7065726174696f6e20646964206e60008201527f6f74207375636365656400000000000000000000000000000000000000000000602082015250565b6000615dd7602a83614f27565b9150615de282615d7b565b604082019050919050565b60006020820190508181036000830152615e0681615dca565b9050919050565b6000604082019050615e226000830185614ebb565b615e2f6020830184614eac565b9392505050565b7f416464726573733a20696e73756666696369656e742062616c616e636520666f60008201527f722063616c6c0000000000000000000000000000000000000000000000000000602082015250565b6000615e92602683614f27565b9150615e9d82615e36565b604082019050919050565b60006020820190508181036000830152615ec181615e85565b9050919050565b7f416464726573733a2063616c6c20746f206e6f6e2d636f6e7472616374000000600082015250565b6000615efe601d83614f27565b9150615f0982615ec8565b602082019050919050565b60006020820190508181036000830152615f2d81615ef1565b9050919050565b60006020820190508181036000830152615f4e8184614f62565b90509291505056fea26469706673582212205e4f1ba18066bcd27e2f1a51e5a9d7d130983bcf4b28af4965f0e86f86f4c2bd64736f6c63430008120033",
  "linkReferences": {},
  "deployedLinkReferences": {}
}